{
  "contractName": "MyContract",
  "abi": [
    {
      "inputs": [
        {
          "internalType": "uint256",
          "name": "_number",
          "type": "uint256"
        }
      ],
      "name": "setNumber",
      "outputs": [],
      "stateMutability": "nonpayable",
      "type": "function"
    },
    {
      "inputs": [],
      "name": "getNumber",
      "outputs": [
        {
          "internalType": "uint256",
          "name": "",
          "type": "uint256"
        }
      ],
      "stateMutability": "view",
      "type": "function"
    }
  ],
  "bytecode": "0x608060405234801561001057600080fd5b5060d48061001f6000396000f3fe6080604052348015600f57600080fd5b506004361060325760003560e01c80633fb5c1cb146037578063f2c9ecd8146062575b600080fd5b606060048036036020811015604b57600080fd5b8101908080359060200190929190505050607e565b005b60686095565b6040518082815260200191505060405180910390f35b6000811015608b57600080fd5b8060008190555050565b6000805490509056fea2646970667358221220034683592fc8f21df89e0270325f016be50a437b4d2a1f6cf9d61d3ee9f672af64736f6c63430007060033",
  "immutableReferences": {},
  "source": "// SPDX-License-Identifier: MIT\r\npragma solidity >=0.4.22 <8.10.0;\r\n\r\ncontract MyContract {\r\n  uint number;\r\n  \r\n  function setNumber(uint _number) public {\r\n    require(_number >= 0);\r\n    number = _number;\r\n  }\r\n\r\n  function getNumber() public view returns (uint) {\r\n    return number;\r\n  }\r\n}\r\n",
  "sourcePath": "F:\\blockchain\\stargate\\contracts\\MyContract.sol",
  "compiler": {
    "name": "solc",
    "version": "0.7.6+commit.7338295f.Emscripten.clang"
  },
  "schemaVersion": "3.4.11",
  "updatedAt": "2023-01-10T17:40:07.119Z",
  "devdoc": {
    "kind": "dev",
    "methods": {},
    "version": 1
  },
  "userdoc": {
    "kind": "user",
    "methods": {},
    "version": 1
  }
}