{
  "contractName": "OmnichainFungibleToken",
  "abi": [
    {
      "inputs": [
        {
          "internalType": "string",
          "name": "_name",
          "type": "string"
        },
        {
          "internalType": "string",
          "name": "_symbol",
          "type": "string"
        },
        {
          "internalType": "address",
          "name": "_endpoint",
          "type": "address"
        },
        {
          "internalType": "uint16",
          "name": "_mainChainId",
          "type": "uint16"
        },
        {
          "internalType": "uint256",
          "name": "_initialSupplyOnMainEndpoint",
          "type": "uint256"
        }
      ],
      "stateMutability": "nonpayable",
      "type": "constructor"
    },
    {
      "anonymous": false,
      "inputs": [
        {
          "indexed": true,
          "internalType": "address",
          "name": "owner",
          "type": "address"
        },
        {
          "indexed": true,
          "internalType": "address",
          "name": "spender",
          "type": "address"
        },
        {
          "indexed": false,
          "internalType": "uint256",
          "name": "value",
          "type": "uint256"
        }
      ],
      "name": "Approval",
      "type": "event"
    },
    {
      "anonymous": false,
      "inputs": [
        {
          "indexed": true,
          "internalType": "address",
          "name": "previousOwner",
          "type": "address"
        },
        {
          "indexed": true,
          "internalType": "address",
          "name": "newOwner",
          "type": "address"
        }
      ],
      "name": "OwnershipTransferred",
      "type": "event"
    },
    {
      "anonymous": false,
      "inputs": [
        {
          "indexed": false,
          "internalType": "bool",
          "name": "isPaused",
          "type": "bool"
        }
      ],
      "name": "Paused",
      "type": "event"
    },
    {
      "anonymous": false,
      "inputs": [
        {
          "indexed": false,
          "internalType": "uint16",
          "name": "srcChainId",
          "type": "uint16"
        },
        {
          "indexed": false,
          "internalType": "address",
          "name": "toAddress",
          "type": "address"
        },
        {
          "indexed": false,
          "internalType": "uint256",
          "name": "qty",
          "type": "uint256"
        },
        {
          "indexed": false,
          "internalType": "uint64",
          "name": "nonce",
          "type": "uint64"
        }
      ],
      "name": "ReceiveFromChain",
      "type": "event"
    },
    {
      "anonymous": false,
      "inputs": [
        {
          "indexed": false,
          "internalType": "uint16",
          "name": "srcChainId",
          "type": "uint16"
        },
        {
          "indexed": false,
          "internalType": "bytes",
          "name": "toAddress",
          "type": "bytes"
        },
        {
          "indexed": false,
          "internalType": "uint256",
          "name": "qty",
          "type": "uint256"
        },
        {
          "indexed": false,
          "internalType": "uint64",
          "name": "nonce",
          "type": "uint64"
        }
      ],
      "name": "SendToChain",
      "type": "event"
    },
    {
      "anonymous": false,
      "inputs": [
        {
          "indexed": true,
          "internalType": "address",
          "name": "from",
          "type": "address"
        },
        {
          "indexed": true,
          "internalType": "address",
          "name": "to",
          "type": "address"
        },
        {
          "indexed": false,
          "internalType": "uint256",
          "name": "value",
          "type": "uint256"
        }
      ],
      "name": "Transfer",
      "type": "event"
    },
    {
      "inputs": [
        {
          "internalType": "address",
          "name": "owner",
          "type": "address"
        },
        {
          "internalType": "address",
          "name": "spender",
          "type": "address"
        }
      ],
      "name": "allowance",
      "outputs": [
        {
          "internalType": "uint256",
          "name": "",
          "type": "uint256"
        }
      ],
      "stateMutability": "view",
      "type": "function"
    },
    {
      "inputs": [
        {
          "internalType": "address",
          "name": "spender",
          "type": "address"
        },
        {
          "internalType": "uint256",
          "name": "amount",
          "type": "uint256"
        }
      ],
      "name": "approve",
      "outputs": [
        {
          "internalType": "bool",
          "name": "",
          "type": "bool"
        }
      ],
      "stateMutability": "nonpayable",
      "type": "function"
    },
    {
      "inputs": [
        {
          "internalType": "address",
          "name": "account",
          "type": "address"
        }
      ],
      "name": "balanceOf",
      "outputs": [
        {
          "internalType": "uint256",
          "name": "",
          "type": "uint256"
        }
      ],
      "stateMutability": "view",
      "type": "function"
    },
    {
      "inputs": [],
      "name": "decimals",
      "outputs": [
        {
          "internalType": "uint8",
          "name": "",
          "type": "uint8"
        }
      ],
      "stateMutability": "view",
      "type": "function"
    },
    {
      "inputs": [
        {
          "internalType": "address",
          "name": "spender",
          "type": "address"
        },
        {
          "internalType": "uint256",
          "name": "subtractedValue",
          "type": "uint256"
        }
      ],
      "name": "decreaseAllowance",
      "outputs": [
        {
          "internalType": "bool",
          "name": "",
          "type": "bool"
        }
      ],
      "stateMutability": "nonpayable",
      "type": "function"
    },
    {
      "inputs": [
        {
          "internalType": "uint16",
          "name": "",
          "type": "uint16"
        }
      ],
      "name": "dstContractLookup",
      "outputs": [
        {
          "internalType": "bytes",
          "name": "",
          "type": "bytes"
        }
      ],
      "stateMutability": "view",
      "type": "function"
    },
    {
      "inputs": [],
      "name": "endpoint",
      "outputs": [
        {
          "internalType": "contract ILayerZeroEndpoint",
          "name": "",
          "type": "address"
        }
      ],
      "stateMutability": "view",
      "type": "function"
    },
    {
      "inputs": [
        {
          "internalType": "address",
          "name": "spender",
          "type": "address"
        },
        {
          "internalType": "uint256",
          "name": "addedValue",
          "type": "uint256"
        }
      ],
      "name": "increaseAllowance",
      "outputs": [
        {
          "internalType": "bool",
          "name": "",
          "type": "bool"
        }
      ],
      "stateMutability": "nonpayable",
      "type": "function"
    },
    {
      "inputs": [],
      "name": "isMain",
      "outputs": [
        {
          "internalType": "bool",
          "name": "",
          "type": "bool"
        }
      ],
      "stateMutability": "view",
      "type": "function"
    },
    {
      "inputs": [],
      "name": "name",
      "outputs": [
        {
          "internalType": "string",
          "name": "",
          "type": "string"
        }
      ],
      "stateMutability": "view",
      "type": "function"
    },
    {
      "inputs": [],
      "name": "owner",
      "outputs": [
        {
          "internalType": "address",
          "name": "",
          "type": "address"
        }
      ],
      "stateMutability": "view",
      "type": "function"
    },
    {
      "inputs": [],
      "name": "paused",
      "outputs": [
        {
          "internalType": "bool",
          "name": "",
          "type": "bool"
        }
      ],
      "stateMutability": "view",
      "type": "function"
    },
    {
      "inputs": [],
      "name": "symbol",
      "outputs": [
        {
          "internalType": "string",
          "name": "",
          "type": "string"
        }
      ],
      "stateMutability": "view",
      "type": "function"
    },
    {
      "inputs": [],
      "name": "totalSupply",
      "outputs": [
        {
          "internalType": "uint256",
          "name": "",
          "type": "uint256"
        }
      ],
      "stateMutability": "view",
      "type": "function"
    },
    {
      "inputs": [
        {
          "internalType": "address",
          "name": "recipient",
          "type": "address"
        },
        {
          "internalType": "uint256",
          "name": "amount",
          "type": "uint256"
        }
      ],
      "name": "transfer",
      "outputs": [
        {
          "internalType": "bool",
          "name": "",
          "type": "bool"
        }
      ],
      "stateMutability": "nonpayable",
      "type": "function"
    },
    {
      "inputs": [
        {
          "internalType": "address",
          "name": "sender",
          "type": "address"
        },
        {
          "internalType": "address",
          "name": "recipient",
          "type": "address"
        },
        {
          "internalType": "uint256",
          "name": "amount",
          "type": "uint256"
        }
      ],
      "name": "transferFrom",
      "outputs": [
        {
          "internalType": "bool",
          "name": "",
          "type": "bool"
        }
      ],
      "stateMutability": "nonpayable",
      "type": "function"
    },
    {
      "inputs": [
        {
          "internalType": "address",
          "name": "newOwner",
          "type": "address"
        }
      ],
      "name": "transferOwnership",
      "outputs": [],
      "stateMutability": "nonpayable",
      "type": "function"
    },
    {
      "inputs": [
        {
          "internalType": "bool",
          "name": "_pause",
          "type": "bool"
        }
      ],
      "name": "pauseSendTokens",
      "outputs": [],
      "stateMutability": "nonpayable",
      "type": "function"
    },
    {
      "inputs": [
        {
          "internalType": "uint16",
          "name": "_dstChainId",
          "type": "uint16"
        },
        {
          "internalType": "bytes",
          "name": "_destinationContractAddress",
          "type": "bytes"
        }
      ],
      "name": "setDestination",
      "outputs": [],
      "stateMutability": "nonpayable",
      "type": "function"
    },
    {
      "inputs": [],
      "name": "chainId",
      "outputs": [
        {
          "internalType": "uint16",
          "name": "",
          "type": "uint16"
        }
      ],
      "stateMutability": "view",
      "type": "function"
    },
    {
      "inputs": [
        {
          "internalType": "uint16",
          "name": "_dstChainId",
          "type": "uint16"
        },
        {
          "internalType": "bytes",
          "name": "_to",
          "type": "bytes"
        },
        {
          "internalType": "uint256",
          "name": "_qty",
          "type": "uint256"
        },
        {
          "internalType": "address",
          "name": "_zroPaymentAddress",
          "type": "address"
        },
        {
          "internalType": "bytes",
          "name": "_adapterParam",
          "type": "bytes"
        }
      ],
      "name": "sendTokens",
      "outputs": [],
      "stateMutability": "payable",
      "type": "function"
    },
    {
      "inputs": [
        {
          "internalType": "uint16",
          "name": "_srcChainId",
          "type": "uint16"
        },
        {
          "internalType": "bytes",
          "name": "_fromAddress",
          "type": "bytes"
        },
        {
          "internalType": "uint64",
          "name": "_nonce",
          "type": "uint64"
        },
        {
          "internalType": "bytes",
          "name": "_payload",
          "type": "bytes"
        }
      ],
      "name": "lzReceive",
      "outputs": [],
      "stateMutability": "nonpayable",
      "type": "function"
    },
    {
      "inputs": [
        {
          "internalType": "uint16",
          "name": "_dstChainId",
          "type": "uint16"
        },
        {
          "internalType": "bytes",
          "name": "_toAddress",
          "type": "bytes"
        },
        {
          "internalType": "bool",
          "name": "_useZro",
          "type": "bool"
        },
        {
          "internalType": "bytes",
          "name": "_txParameters",
          "type": "bytes"
        }
      ],
      "name": "estimateSendTokensFee",
      "outputs": [
        {
          "internalType": "uint256",
          "name": "nativeFee",
          "type": "uint256"
        },
        {
          "internalType": "uint256",
          "name": "zroFee",
          "type": "uint256"
        }
      ],
      "stateMutability": "view",
      "type": "function"
    },
    {
      "inputs": [
        {
          "internalType": "uint16",
          "name": "_version",
          "type": "uint16"
        },
        {
          "internalType": "uint16",
          "name": "_chainId",
          "type": "uint16"
        },
        {
          "internalType": "uint256",
          "name": "_configType",
          "type": "uint256"
        },
        {
          "internalType": "bytes",
          "name": "_config",
          "type": "bytes"
        }
      ],
      "name": "setConfig",
      "outputs": [],
      "stateMutability": "nonpayable",
      "type": "function"
    },
    {
      "inputs": [
        {
          "internalType": "uint16",
          "name": "_version",
          "type": "uint16"
        }
      ],
      "name": "setSendVersion",
      "outputs": [],
      "stateMutability": "nonpayable",
      "type": "function"
    },
    {
      "inputs": [
        {
          "internalType": "uint16",
          "name": "_version",
          "type": "uint16"
        }
      ],
      "name": "setReceiveVersion",
      "outputs": [],
      "stateMutability": "nonpayable",
      "type": "function"
    },
    {
      "inputs": [
        {
          "internalType": "uint16",
          "name": "_srcChainId",
          "type": "uint16"
        },
        {
          "internalType": "bytes",
          "name": "_srcAddress",
          "type": "bytes"
        }
      ],
      "name": "forceResumeReceive",
      "outputs": [],
      "stateMutability": "nonpayable",
      "type": "function"
    },
    {
      "inputs": [],
      "name": "renounceOwnership",
      "outputs": [],
      "stateMutability": "nonpayable",
      "type": "function"
    }
  ],
  "bytecode": "0x60a06040523480156200001157600080fd5b5060405162003cc438038062003cc4833981810160405260a08110156200003757600080fd5b81019080805160405193929190846401000000008211156200005857600080fd5b838201915060208201858111156200006f57600080fd5b82518660018202830111640100000000821117156200008d57600080fd5b8083526020830192505050908051906020019080838360005b83811015620000c3578082015181840152602081019050620000a6565b50505050905090810190601f168015620000f15780820380516001836020036101000a031916815260200191505b50604052602001805160405193929190846401000000008211156200011557600080fd5b838201915060208201858111156200012c57600080fd5b82518660018202830111640100000000821117156200014a57600080fd5b8083526020830192505050908051906020019080838360005b838110156200018057808201518184015260208101905062000163565b50505050905090810190601f168015620001ae5780820380516001836020036101000a031916815260200191505b5060405260200180519060200190929190805190602001909291908051906020019092919050505084848160039080519060200190620001f092919062000651565b5080600490805190602001906200020992919062000651565b506012600560006101000a81548160ff021916908360ff160217905550505060006200023a620003dd60201b60201c565b905080600560016101000a81548173ffffffffffffffffffffffffffffffffffffffff021916908373ffffffffffffffffffffffffffffffffffffffff1602179055508073ffffffffffffffffffffffffffffffffffffffff16600073ffffffffffffffffffffffffffffffffffffffff167f8be0079c531659141344cd1fd0a4f28419497f9722a3daafe3b4186f6b6457e060405160405180910390a3508161ffff168373ffffffffffffffffffffffffffffffffffffffff16633408e4706040518163ffffffff1660e01b815260040160206040518083038186803b1580156200032557600080fd5b505afa1580156200033a573d6000803e3d6000fd5b505050506040513d60208110156200035157600080fd5b810190808051906020019092919050505061ffff1614156200039b576200037f3382620003e560201b60201c565b6001600760016101000a81548160ff0219169083151502179055505b8273ffffffffffffffffffffffffffffffffffffffff1660808173ffffffffffffffffffffffffffffffffffffffff1660601b81525050505050505062000707565b600033905090565b600073ffffffffffffffffffffffffffffffffffffffff168273ffffffffffffffffffffffffffffffffffffffff16141562000489576040517f08c379a000000000000000000000000000000000000000000000000000000000815260040180806020018281038252601f8152602001807f45524332303a206d696e7420746f20746865207a65726f20616464726573730081525060200191505060405180910390fd5b6200049d60008383620005c360201b60201c565b620004b981600254620005c860201b620028c91790919060201c565b60028190555062000517816000808573ffffffffffffffffffffffffffffffffffffffff1673ffffffffffffffffffffffffffffffffffffffff16815260200190815260200160002054620005c860201b620028c91790919060201c565b6000808473ffffffffffffffffffffffffffffffffffffffff1673ffffffffffffffffffffffffffffffffffffffff168152602001908152602001600020819055508173ffffffffffffffffffffffffffffffffffffffff16600073ffffffffffffffffffffffffffffffffffffffff167fddf252ad1be2c89b69c2b068fc378daa952ba7f163c4a11628f55a4df523b3ef836040518082815260200191505060405180910390a35050565b505050565b60008082840190508381101562000647576040517f08c379a000000000000000000000000000000000000000000000000000000000815260040180806020018281038252601b8152602001807f536166654d6174683a206164646974696f6e206f766572666c6f77000000000081525060200191505060405180910390fd5b8091505092915050565b828054600181600116156101000203166002900490600052602060002090601f016020900481019282620006895760008555620006d5565b82601f10620006a457805160ff1916838001178555620006d5565b82800160010185558215620006d5579182015b82811115620006d4578251825591602001919060010190620006b7565b5b509050620006e49190620006e8565b5090565b5b8082111562000703576000816000905550600101620006e9565b5090565b60805160601c6135726200075260003980610ec652806113245280611483528061165452806118d45280611ae75280611dc45280611e9f528061222c528061246c52506135726000f3fe6080604052600436106101b65760003560e01c8063604269d1116100ec5780639a8a05921161008a578063cbed8b9c11610064578063cbed8b9c14610d05578063dd62ed3e14610db1578063f187892214610e36578063f2fde38b14610e73576101b6565b80639a8a059214610bf4578063a457c2d714610c23578063a9059cbb14610c94576101b6565b806370a08231116100c657806370a0823114610aa7578063715018a614610b0c5780638da5cb5b14610b2357806395d89b4114610b64576101b6565b8063604269d11461092e57806360f05c7a1461095b578063706d8fff14610a13576101b6565b806327b7bbaa11610159578063395093511161013357806339509351146107bb57806342d65a8d1461082c5780635c975abb146108c05780635e280f11146108ed576101b6565b806327b7bbaa146105775780632e15238c14610687578063313ce5671461078d576101b6565b8063095ea7b311610195578063095ea7b31461040b57806310ddb1371461047c57806318160ddd146104bb57806323b872dd146104e6576101b6565b80621d3567146101bb57806306fdde031461033c57806307e0db17146103cc575b600080fd5b3480156101c757600080fd5b5061033a600480360360808110156101de57600080fd5b81019080803561ffff1690602001909291908035906020019064010000000081111561020957600080fd5b82018360208201111561021b57600080fd5b8035906020019184600183028401116401000000008311171561023d57600080fd5b91908080601f016020809104026020016040519081016040528093929190818152602001838380828437600081840152601f19601f820116905080830192505050505050509192919290803567ffffffffffffffff169060200190929190803590602001906401000000008111156102b457600080fd5b8201836020820111156102c657600080fd5b803590602001918460018302840111640100000000831117156102e857600080fd5b91908080601f016020809104026020016040519081016040528093929190818152602001838380828437600081840152601f19601f820116905080830192505050505050509192919290505050610ec4565b005b34801561034857600080fd5b506103516111d1565b6040518080602001828103825283818151815260200191508051906020019080838360005b83811015610391578082015181840152602081019050610376565b50505050905090810190601f1680156103be5780820380516001836020036101000a031916815260200191505b509250505060405180910390f35b3480156103d857600080fd5b50610409600480360360208110156103ef57600080fd5b81019080803561ffff169060200190929190505050611273565b005b34801561041757600080fd5b506104646004803603604081101561042e57600080fd5b81019080803573ffffffffffffffffffffffffffffffffffffffff169060200190929190803590602001909291905050506113b4565b60405180821515815260200191505060405180910390f35b34801561048857600080fd5b506104b96004803603602081101561049f57600080fd5b81019080803561ffff1690602001909291905050506113d2565b005b3480156104c757600080fd5b506104d0611513565b6040518082815260200191505060405180910390f35b3480156104f257600080fd5b5061055f6004803603606081101561050957600080fd5b81019080803573ffffffffffffffffffffffffffffffffffffffff169060200190929190803573ffffffffffffffffffffffffffffffffffffffff1690602001909291908035906020019092919050505061151d565b60405180821515815260200191505060405180910390f35b34801561058357600080fd5b5061066a6004803603608081101561059a57600080fd5b81019080803561ffff169060200190929190803590602001906401000000008111156105c557600080fd5b8201836020820111156105d757600080fd5b803590602001918460018302840111640100000000831117156105f957600080fd5b90919293919293908035151590602001909291908035906020019064010000000081111561062657600080fd5b82018360208201111561063857600080fd5b8035906020019184600183028401116401000000008311171561065a57600080fd5b90919293919293905050506115f6565b604051808381526020018281526020019250505060405180910390f35b61078b600480360360a081101561069d57600080fd5b81019080803561ffff169060200190929190803590602001906401000000008111156106c857600080fd5b8201836020820111156106da57600080fd5b803590602001918460018302840111640100000000831117156106fc57600080fd5b909192939192939080359060200190929190803573ffffffffffffffffffffffffffffffffffffffff1690602001909291908035906020019064010000000081111561074757600080fd5b82018360208201111561075957600080fd5b8035906020019184600183028401116401000000008311171561077b57600080fd5b90919293919293905050506117e4565b005b34801561079957600080fd5b506107a2611c49565b604051808260ff16815260200191505060405180910390f35b3480156107c757600080fd5b50610814600480360360408110156107de57600080fd5b81019080803573ffffffffffffffffffffffffffffffffffffffff16906020019092919080359060200190929190505050611c60565b60405180821515815260200191505060405180910390f35b34801561083857600080fd5b506108be6004803603604081101561084f57600080fd5b81019080803561ffff1690602001909291908035906020019064010000000081111561087a57600080fd5b82018360208201111561088c57600080fd5b803590602001918460018302840111640100000000831117156108ae57600080fd5b9091929391929390505050611d13565b005b3480156108cc57600080fd5b506108d5611e8a565b60405180821515815260200191505060405180910390f35b3480156108f957600080fd5b50610902611e9d565b604051808273ffffffffffffffffffffffffffffffffffffffff16815260200191505060405180910390f35b34801561093a57600080fd5b50610943611ec1565b60405180821515815260200191505060405180910390f35b34801561096757600080fd5b506109986004803603602081101561097e57600080fd5b81019080803561ffff169060200190929190505050611ed4565b6040518080602001828103825283818151815260200191508051906020019080838360005b838110156109d85780820151818401526020810190506109bd565b50505050905090810190601f168015610a055780820380516001836020036101000a031916815260200191505b509250505060405180910390f35b348015610a1f57600080fd5b50610aa560048036036040811015610a3657600080fd5b81019080803561ffff16906020019092919080359060200190640100000000811115610a6157600080fd5b820183602082011115610a7357600080fd5b80359060200191846001830284011164010000000083111715610a9557600080fd5b9091929391929390505050611f84565b005b348015610ab357600080fd5b50610af660048036036020811015610aca57600080fd5b81019080803573ffffffffffffffffffffffffffffffffffffffff169060200190929190505050612063565b6040518082815260200191505060405180910390f35b348015610b1857600080fd5b50610b216120ab565b005b348015610b2f57600080fd5b50610b3861215c565b604051808273ffffffffffffffffffffffffffffffffffffffff16815260200191505060405180910390f35b348015610b7057600080fd5b50610b79612186565b6040518080602001828103825283818151815260200191508051906020019080838360005b83811015610bb9578082015181840152602081019050610b9e565b50505050905090810190601f168015610be65780820380516001836020036101000a031916815260200191505b509250505060405180910390f35b348015610c0057600080fd5b50610c09612228565b604051808261ffff16815260200191505060405180910390f35b348015610c2f57600080fd5b50610c7c60048036036040811015610c4657600080fd5b81019080803573ffffffffffffffffffffffffffffffffffffffff169060200190929190803590602001909291905050506122d0565b60405180821515815260200191505060405180910390f35b348015610ca057600080fd5b50610ced60048036036040811015610cb757600080fd5b81019080803573ffffffffffffffffffffffffffffffffffffffff1690602001909291908035906020019092919050505061239d565b60405180821515815260200191505060405180910390f35b348015610d1157600080fd5b50610daf60048036036080811015610d2857600080fd5b81019080803561ffff169060200190929190803561ffff1690602001909291908035906020019092919080359060200190640100000000811115610d6b57600080fd5b820183602082011115610d7d57600080fd5b80359060200191846001830284011164010000000083111715610d9f57600080fd5b90919293919293905050506123bb565b005b348015610dbd57600080fd5b50610e2060048036036040811015610dd457600080fd5b81019080803573ffffffffffffffffffffffffffffffffffffffff169060200190929190803573ffffffffffffffffffffffffffffffffffffffff169060200190929190505050612548565b6040518082815260200191505060405180910390f35b348015610e4257600080fd5b50610e7160048036036020811015610e5957600080fd5b810190808035151590602001909291905050506125cf565b005b348015610e7f57600080fd5b50610ec260048036036020811015610e9657600080fd5b81019080803573ffffffffffffffffffffffffffffffffffffffff1690602001909291905050506126d4565b005b7f000000000000000000000000000000000000000000000000000000000000000073ffffffffffffffffffffffffffffffffffffffff163373ffffffffffffffffffffffffffffffffffffffff1614610f1c57600080fd5b600660008561ffff1661ffff1681526020019081526020016000208054600181600116156101000203166002900490508351148015610fe35750600660008561ffff1661ffff1681526020019081526020016000206040518082805460018160011615610100020316600290048015610fcc5780601f10610faa576101008083540402835291820191610fcc565b820191906000526020600020905b815481529060010190602001808311610fb8575b505091505060405180910390208380519060200120145b611038576040517f08c379a00000000000000000000000000000000000000000000000000000000081526004018080602001828103825260248152602001806133ad6024913960400191505060405180910390fd5b60008082806020019051604081101561105057600080fd5b810190808051604051939291908464010000000082111561107057600080fd5b8382019150602082018581111561108657600080fd5b82518660018202830111640100000000821117156110a357600080fd5b8083526020830192505050908051906020019080838360005b838110156110d75780820151818401526020810190506110bc565b50505050905090810190601f1680156111045780820380516001836020036101000a031916815260200191505b506040526020018051906020019092919050505091509150600060148301519050600760019054906101000a900460ff161561114a57611145308284612951565b611155565b6111548183612c12565b5b7fd4d39d20f72eabd06c301e516d54653dfc9116de62c1d54bf1cb48cf3b42a7db87828488604051808561ffff1681526020018473ffffffffffffffffffffffffffffffffffffffff1681526020018381526020018267ffffffffffffffff16815260200194505050505060405180910390a150505050505050565b606060038054600181600116156101000203166002900480601f0160208091040260200160405190810160405280929190818152602001828054600181600116156101000203166002900480156112695780601f1061123e57610100808354040283529160200191611269565b820191906000526020600020905b81548152906001019060200180831161124c57829003601f168201915b5050505050905090565b61127b612dd9565b73ffffffffffffffffffffffffffffffffffffffff1661129961215c565b73ffffffffffffffffffffffffffffffffffffffff1614611322576040517f08c379a00000000000000000000000000000000000000000000000000000000081526004018080602001828103825260208152602001807f4f776e61626c653a2063616c6c6572206973206e6f7420746865206f776e657281525060200191505060405180910390fd5b7f000000000000000000000000000000000000000000000000000000000000000073ffffffffffffffffffffffffffffffffffffffff166307e0db17826040518263ffffffff1660e01b8152600401808261ffff168152602001915050600060405180830381600087803b15801561139957600080fd5b505af11580156113ad573d6000803e3d6000fd5b5050505050565b60006113c86113c1612dd9565b8484612de1565b6001905092915050565b6113da612dd9565b73ffffffffffffffffffffffffffffffffffffffff166113f861215c565b73ffffffffffffffffffffffffffffffffffffffff1614611481576040517f08c379a00000000000000000000000000000000000000000000000000000000081526004018080602001828103825260208152602001807f4f776e61626c653a2063616c6c6572206973206e6f7420746865206f776e657281525060200191505060405180910390fd5b7f000000000000000000000000000000000000000000000000000000000000000073ffffffffffffffffffffffffffffffffffffffff166310ddb137826040518263ffffffff1660e01b8152600401808261ffff168152602001915050600060405180830381600087803b1580156114f857600080fd5b505af115801561150c573d6000803e3d6000fd5b5050505050565b6000600254905090565b600061152a848484612951565b6115eb84611536612dd9565b6115e68560405180606001604052806028815260200161346160289139600160008b73ffffffffffffffffffffffffffffffffffffffff1673ffffffffffffffffffffffffffffffffffffffff168152602001908152602001600020600061159c612dd9565b73ffffffffffffffffffffffffffffffffffffffff1673ffffffffffffffffffffffffffffffffffffffff16815260200190815260200160002054612fd89092919063ffffffff16565b612de1565b600190509392505050565b60008060008787600160405160200180806020018381526020018281038252858582818152602001925080828437600081840152601f19601f82011690508083019250505094505050505060405160208183030381529060405290507f000000000000000000000000000000000000000000000000000000000000000073ffffffffffffffffffffffffffffffffffffffff166340a7bb108a30848a8a8a6040518763ffffffff1660e01b8152600401808761ffff1681526020018673ffffffffffffffffffffffffffffffffffffffff16815260200180602001851515815260200180602001838103835287818151815260200191508051906020019080838360005b838110156117155780820151818401526020810190506116fa565b50505050905090810190601f1680156117425780820380516001836020036101000a031916815260200191505b508381038252858582818152602001925080828437600081840152601f19601f82011690508083019250505098505050505050505050604080518083038186803b15801561178f57600080fd5b505afa1580156117a3573d6000803e3d6000fd5b505050506040513d60408110156117b957600080fd5b8101908080519060200190929190805190602001909291905050509250925050965096945050505050565b600760009054906101000a900460ff161561184a576040517f08c379a00000000000000000000000000000000000000000000000000000000081526004018080602001828103825260258152602001806134aa6025913960400191505060405180910390fd5b600760019054906101000a900460ff161561186f5761186a333086612951565b61187a565b6118793385613092565b5b600086868660405160200180806020018381526020018281038252858582818152602001925080828437600081840152601f19601f82011690508083019250505094505050505060405160208183030381529060405290507f000000000000000000000000000000000000000000000000000000000000000073ffffffffffffffffffffffffffffffffffffffff1663c5803100348a600660008d61ffff1661ffff16815260200190815260200160002085338a8a8a6040518963ffffffff1660e01b8152600401808861ffff16815260200180602001806020018773ffffffffffffffffffffffffffffffffffffffff1681526020018673ffffffffffffffffffffffffffffffffffffffff1681526020018060200184810384528a818154600181600116156101000203166002900481526020019150805460018160011615610100020316600290048015611a125780601f106119e757610100808354040283529160200191611a12565b820191906000526020600020905b8154815290600101906020018083116119f557829003601f168201915b5050848103835289818151815260200191508051906020019080838360005b83811015611a4c578082015181840152602081019050611a31565b50505050905090810190601f168015611a795780820380516001836020036101000a031916815260200191505b508481038252868682818152602001925080828437600081840152601f19601f8201169050808301925050509a50505050505050505050506000604051808303818588803b158015611aca57600080fd5b505af1158015611ade573d6000803e3d6000fd5b505050505060007f000000000000000000000000000000000000000000000000000000000000000073ffffffffffffffffffffffffffffffffffffffff16637a1457488a306040518363ffffffff1660e01b8152600401808361ffff1681526020018273ffffffffffffffffffffffffffffffffffffffff1681526020019250505060206040518083038186803b158015611b7857600080fd5b505afa158015611b8c573d6000803e3d6000fd5b505050506040513d6020811015611ba257600080fd5b810190808051906020019092919050505090507fef1c12e81f50500a9877e43d6690ac985d26149831e5b1aacc13c404acbca0778989898985604051808661ffff168152602001806020018481526020018367ffffffffffffffff1681526020018281038252868682818152602001925080828437600081840152601f19601f820116905080830192505050965050505050505060405180910390a1505050505050505050565b6000600560009054906101000a900460ff16905090565b6000611d09611c6d612dd9565b84611d048560016000611c7e612dd9565b73ffffffffffffffffffffffffffffffffffffffff1673ffffffffffffffffffffffffffffffffffffffff16815260200190815260200160002060008973ffffffffffffffffffffffffffffffffffffffff1673ffffffffffffffffffffffffffffffffffffffff168152602001908152602001600020546128c990919063ffffffff16565b612de1565b6001905092915050565b611d1b612dd9565b73ffffffffffffffffffffffffffffffffffffffff16611d3961215c565b73ffffffffffffffffffffffffffffffffffffffff1614611dc2576040517f08c379a00000000000000000000000000000000000000000000000000000000081526004018080602001828103825260208152602001807f4f776e61626c653a2063616c6c6572206973206e6f7420746865206f776e657281525060200191505060405180910390fd5b7f000000000000000000000000000000000000000000000000000000000000000073ffffffffffffffffffffffffffffffffffffffff166342d65a8d8484846040518463ffffffff1660e01b8152600401808461ffff168152602001806020018281038252848482818152602001925080828437600081840152601f19601f820116905080830192505050945050505050600060405180830381600087803b158015611e6d57600080fd5b505af1158015611e81573d6000803e3d6000fd5b50505050505050565b600760009054906101000a900460ff1681565b7f000000000000000000000000000000000000000000000000000000000000000081565b600760019054906101000a900460ff1681565b60066020528060005260406000206000915090508054600181600116156101000203166002900480601f016020809104026020016040519081016040528092919081815260200182805460018160011615610100020316600290048015611f7c5780601f10611f5157610100808354040283529160200191611f7c565b820191906000526020600020905b815481529060010190602001808311611f5f57829003601f168201915b505050505081565b611f8c612dd9565b73ffffffffffffffffffffffffffffffffffffffff16611faa61215c565b73ffffffffffffffffffffffffffffffffffffffff1614612033576040517f08c379a00000000000000000000000000000000000000000000000000000000081526004018080602001828103825260208152602001807f4f776e61626c653a2063616c6c6572206973206e6f7420746865206f776e657281525060200191505060405180910390fd5b8181600660008661ffff1661ffff168152602001908152602001600020919061205d9291906132de565b50505050565b60008060008373ffffffffffffffffffffffffffffffffffffffff1673ffffffffffffffffffffffffffffffffffffffff168152602001908152602001600020549050919050565b6120b3612dd9565b73ffffffffffffffffffffffffffffffffffffffff166120d161215c565b73ffffffffffffffffffffffffffffffffffffffff161461215a576040517f08c379a00000000000000000000000000000000000000000000000000000000081526004018080602001828103825260208152602001807f4f776e61626c653a2063616c6c6572206973206e6f7420746865206f776e657281525060200191505060405180910390fd5b565b6000600560019054906101000a900473ffffffffffffffffffffffffffffffffffffffff16905090565b606060048054600181600116156101000203166002900480601f01602080910402602001604051908101604052809291908181526020018280546001816001161561010002031660029004801561221e5780601f106121f35761010080835404028352916020019161221e565b820191906000526020600020905b81548152906001019060200180831161220157829003601f168201915b5050505050905090565b60007f000000000000000000000000000000000000000000000000000000000000000073ffffffffffffffffffffffffffffffffffffffff16633408e4706040518163ffffffff1660e01b815260040160206040518083038186803b15801561229057600080fd5b505afa1580156122a4573d6000803e3d6000fd5b505050506040513d60208110156122ba57600080fd5b8101908080519060200190929190505050905090565b60006123936122dd612dd9565b8461238e856040518060600160405280602581526020016135186025913960016000612307612dd9565b73ffffffffffffffffffffffffffffffffffffffff1673ffffffffffffffffffffffffffffffffffffffff16815260200190815260200160002060008a73ffffffffffffffffffffffffffffffffffffffff1673ffffffffffffffffffffffffffffffffffffffff16815260200190815260200160002054612fd89092919063ffffffff16565b612de1565b6001905092915050565b60006123b16123aa612dd9565b8484612951565b6001905092915050565b6123c3612dd9565b73ffffffffffffffffffffffffffffffffffffffff166123e161215c565b73ffffffffffffffffffffffffffffffffffffffff161461246a576040517f08c379a00000000000000000000000000000000000000000000000000000000081526004018080602001828103825260208152602001807f4f776e61626c653a2063616c6c6572206973206e6f7420746865206f776e657281525060200191505060405180910390fd5b7f000000000000000000000000000000000000000000000000000000000000000073ffffffffffffffffffffffffffffffffffffffff1663cbed8b9c86868686866040518663ffffffff1660e01b8152600401808661ffff1681526020018561ffff168152602001848152602001806020018281038252848482818152602001925080828437600081840152601f19601f8201169050808301925050509650505050505050600060405180830381600087803b15801561252957600080fd5b505af115801561253d573d6000803e3d6000fd5b505050505050505050565b6000600160008473ffffffffffffffffffffffffffffffffffffffff1673ffffffffffffffffffffffffffffffffffffffff16815260200190815260200160002060008373ffffffffffffffffffffffffffffffffffffffff1673ffffffffffffffffffffffffffffffffffffffff16815260200190815260200160002054905092915050565b6125d7612dd9565b73ffffffffffffffffffffffffffffffffffffffff166125f561215c565b73ffffffffffffffffffffffffffffffffffffffff161461267e576040517f08c379a00000000000000000000000000000000000000000000000000000000081526004018080602001828103825260208152602001807f4f776e61626c653a2063616c6c6572206973206e6f7420746865206f776e657281525060200191505060405180910390fd5b80600760006101000a81548160ff0219169083151502179055507f0e2fb031ee032dc02d8011dc50b816eb450cf856abd8261680dac74f72165bd28160405180821515815260200191505060405180910390a150565b6126dc612dd9565b73ffffffffffffffffffffffffffffffffffffffff166126fa61215c565b73ffffffffffffffffffffffffffffffffffffffff1614612783576040517f08c379a00000000000000000000000000000000000000000000000000000000081526004018080602001828103825260208152602001807f4f776e61626c653a2063616c6c6572206973206e6f7420746865206f776e657281525060200191505060405180910390fd5b600073ffffffffffffffffffffffffffffffffffffffff168173ffffffffffffffffffffffffffffffffffffffff161415612809576040517f08c379a00000000000000000000000000000000000000000000000000000000081526004018080602001828103825260268152602001806133f36026913960400191505060405180910390fd5b8073ffffffffffffffffffffffffffffffffffffffff16600560019054906101000a900473ffffffffffffffffffffffffffffffffffffffff1673ffffffffffffffffffffffffffffffffffffffff167f8be0079c531659141344cd1fd0a4f28419497f9722a3daafe3b4186f6b6457e060405160405180910390a380600560016101000a81548173ffffffffffffffffffffffffffffffffffffffff021916908373ffffffffffffffffffffffffffffffffffffffff16021790555050565b600080828401905083811015612947576040517f08c379a000000000000000000000000000000000000000000000000000000000815260040180806020018281038252601b8152602001807f536166654d6174683a206164646974696f6e206f766572666c6f77000000000081525060200191505060405180910390fd5b8091505092915050565b600073ffffffffffffffffffffffffffffffffffffffff168373ffffffffffffffffffffffffffffffffffffffff1614156129d7576040517f08c379a00000000000000000000000000000000000000000000000000000000081526004018080602001828103825260258152602001806134cf6025913960400191505060405180910390fd5b600073ffffffffffffffffffffffffffffffffffffffff168273ffffffffffffffffffffffffffffffffffffffff161415612a5d576040517f08c379a000000000000000000000000000000000000000000000000000000000815260040180806020018281038252602381526020018061338a6023913960400191505060405180910390fd5b612a68838383613256565b612ad38160405180606001604052806026815260200161343b602691396000808773ffffffffffffffffffffffffffffffffffffffff1673ffffffffffffffffffffffffffffffffffffffff16815260200190815260200160002054612fd89092919063ffffffff16565b6000808573ffffffffffffffffffffffffffffffffffffffff1673ffffffffffffffffffffffffffffffffffffffff16815260200190815260200160002081905550612b66816000808573ffffffffffffffffffffffffffffffffffffffff1673ffffffffffffffffffffffffffffffffffffffff168152602001908152602001600020546128c990919063ffffffff16565b6000808473ffffffffffffffffffffffffffffffffffffffff1673ffffffffffffffffffffffffffffffffffffffff168152602001908152602001600020819055508173ffffffffffffffffffffffffffffffffffffffff168373ffffffffffffffffffffffffffffffffffffffff167fddf252ad1be2c89b69c2b068fc378daa952ba7f163c4a11628f55a4df523b3ef836040518082815260200191505060405180910390a3505050565b600073ffffffffffffffffffffffffffffffffffffffff168273ffffffffffffffffffffffffffffffffffffffff161415612cb5576040517f08c379a000000000000000000000000000000000000000000000000000000000815260040180806020018281038252601f8152602001807f45524332303a206d696e7420746f20746865207a65726f20616464726573730081525060200191505060405180910390fd5b612cc160008383613256565b612cd6816002546128c990919063ffffffff16565b600281905550612d2d816000808573ffffffffffffffffffffffffffffffffffffffff1673ffffffffffffffffffffffffffffffffffffffff168152602001908152602001600020546128c990919063ffffffff16565b6000808473ffffffffffffffffffffffffffffffffffffffff1673ffffffffffffffffffffffffffffffffffffffff168152602001908152602001600020819055508173ffffffffffffffffffffffffffffffffffffffff16600073ffffffffffffffffffffffffffffffffffffffff167fddf252ad1be2c89b69c2b068fc378daa952ba7f163c4a11628f55a4df523b3ef836040518082815260200191505060405180910390a35050565b600033905090565b600073ffffffffffffffffffffffffffffffffffffffff168373ffffffffffffffffffffffffffffffffffffffff161415612e67576040517f08c379a00000000000000000000000000000000000000000000000000000000081526004018080602001828103825260248152602001806134f46024913960400191505060405180910390fd5b600073ffffffffffffffffffffffffffffffffffffffff168273ffffffffffffffffffffffffffffffffffffffff161415612eed576040517f08c379a00000000000000000000000000000000000000000000000000000000081526004018080602001828103825260228152602001806134196022913960400191505060405180910390fd5b80600160008573ffffffffffffffffffffffffffffffffffffffff1673ffffffffffffffffffffffffffffffffffffffff16815260200190815260200160002060008473ffffffffffffffffffffffffffffffffffffffff1673ffffffffffffffffffffffffffffffffffffffff168152602001908152602001600020819055508173ffffffffffffffffffffffffffffffffffffffff168373ffffffffffffffffffffffffffffffffffffffff167f8c5be1e5ebec7d5bd14f71427d1e84f3dd0314c0f7b2291e5b200ac8c7c3b925836040518082815260200191505060405180910390a3505050565b6000838311158290613085576040517f08c379a00000000000000000000000000000000000000000000000000000000081526004018080602001828103825283818151815260200191508051906020019080838360005b8381101561304a57808201518184015260208101905061302f565b50505050905090810190601f1680156130775780820380516001836020036101000a031916815260200191505b509250505060405180910390fd5b5082840390509392505050565b600073ffffffffffffffffffffffffffffffffffffffff168273ffffffffffffffffffffffffffffffffffffffff161415613118576040517f08c379a00000000000000000000000000000000000000000000000000000000081526004018080602001828103825260218152602001806134896021913960400191505060405180910390fd5b61312482600083613256565b61318f816040518060600160405280602281526020016133d1602291396000808673ffffffffffffffffffffffffffffffffffffffff1673ffffffffffffffffffffffffffffffffffffffff16815260200190815260200160002054612fd89092919063ffffffff16565b6000808473ffffffffffffffffffffffffffffffffffffffff1673ffffffffffffffffffffffffffffffffffffffff168152602001908152602001600020819055506131e68160025461325b90919063ffffffff16565b600281905550600073ffffffffffffffffffffffffffffffffffffffff168273ffffffffffffffffffffffffffffffffffffffff167fddf252ad1be2c89b69c2b068fc378daa952ba7f163c4a11628f55a4df523b3ef836040518082815260200191505060405180910390a35050565b505050565b6000828211156132d3576040517f08c379a000000000000000000000000000000000000000000000000000000000815260040180806020018281038252601e8152602001807f536166654d6174683a207375627472616374696f6e206f766572666c6f77000081525060200191505060405180910390fd5b818303905092915050565b828054600181600116156101000203166002900490600052602060002090601f016020900481019282613314576000855561335b565b82601f1061332d57803560ff191683800117855561335b565b8280016001018555821561335b579182015b8281111561335a57823582559160200191906001019061333f565b5b509050613368919061336c565b5090565b5b8082111561338557600081600090555060010161336d565b509056fe45524332303a207472616e7366657220746f20746865207a65726f20616464726573734f46543a20696e76616c696420736f757263652073656e64696e6720636f6e747261637445524332303a206275726e20616d6f756e7420657863656564732062616c616e63654f776e61626c653a206e6577206f776e657220697320746865207a65726f206164647265737345524332303a20617070726f766520746f20746865207a65726f206164647265737345524332303a207472616e7366657220616d6f756e7420657863656564732062616c616e636545524332303a207472616e7366657220616d6f756e74206578636565647320616c6c6f77616e636545524332303a206275726e2066726f6d20746865207a65726f20616464726573734f46543a2073656e64546f6b656e7328292069732063757272656e746c792070617573656445524332303a207472616e736665722066726f6d20746865207a65726f206164647265737345524332303a20617070726f76652066726f6d20746865207a65726f206164647265737345524332303a2064656372656173656420616c6c6f77616e63652062656c6f77207a65726fa264697066735822122045926ea8a1c1f3c25018178975ea5a05e8ee39b3b30c636f452ac6838380156564736f6c63430007060033",
  "immutableReferences": {
    "3031": [
      {
        "length": 32,
        "start": 3782
      },
      {
        "length": 32,
        "start": 4900
      },
      {
        "length": 32,
        "start": 5251
      },
      {
        "length": 32,
        "start": 5716
      },
      {
        "length": 32,
        "start": 6356
      },
      {
        "length": 32,
        "start": 6887
      },
      {
        "length": 32,
        "start": 7620
      },
      {
        "length": 32,
        "start": 7839
      },
      {
        "length": 32,
        "start": 8748
      },
      {
        "length": 32,
        "start": 9324
      }
    ]
  },
  "source": "// SPDX-License-Identifier: BUSL-1.1\r\n\r\npragma solidity 0.7.6;\r\n\r\nimport \"@openzeppelin/contracts/token/ERC20/ERC20.sol\";\r\nimport \"@openzeppelin/contracts/access/Ownable.sol\";\r\nimport \"./interfaces/ILayerZeroReceiver.sol\";\r\nimport \"./interfaces/ILayerZeroEndpoint.sol\";\r\nimport \"./interfaces/ILayerZeroUserApplicationConfig.sol\";\r\n\r\n//---------------------------------------------------------------------------\r\n// THIS CONTRACT IS OF BUSINESS LICENSE. CONTACT US BEFORE YOU USE IT.\r\n//\r\n// LayerZero is pushing now a new cross-chain token standard with permissive license soon\r\n//\r\n// Stay tuned for maximum cross-chain compatability of your token\r\n//---------------------------------------------------------------------------\r\ncontract OmnichainFungibleToken is ERC20, Ownable, ILayerZeroReceiver, ILayerZeroUserApplicationConfig {\r\n    ILayerZeroEndpoint immutable public endpoint;\r\n    mapping(uint16 => bytes) public dstContractLookup; // a map of the connected contracts\r\n    bool public paused; // indicates cross chain transfers are paused\r\n    bool public isMain; // indicates this contract is on the main chain\r\n\r\n    event Paused(bool isPaused);\r\n    event SendToChain(uint16 srcChainId, bytes toAddress, uint256 qty, uint64 nonce);\r\n    event ReceiveFromChain(uint16 srcChainId, address toAddress, uint256 qty, uint64 nonce);\r\n\r\n    constructor(\r\n        string memory _name,\r\n        string memory _symbol,\r\n        address _endpoint,\r\n        uint16 _mainChainId,\r\n        uint256 _initialSupplyOnMainEndpoint\r\n    ) ERC20(_name, _symbol) {\r\n        // only mint the total supply on the main chain\r\n        if (ILayerZeroEndpoint(_endpoint).getChainId() == _mainChainId) {\r\n            _mint(msg.sender, _initialSupplyOnMainEndpoint);\r\n            isMain = true;\r\n        }\r\n        // set the LayerZero endpoint\r\n        endpoint = ILayerZeroEndpoint(_endpoint);\r\n    }\r\n\r\n    function pauseSendTokens(bool _pause) external onlyOwner {\r\n        paused = _pause;\r\n        emit Paused(_pause);\r\n    }\r\n\r\n    function setDestination(uint16 _dstChainId, bytes calldata _destinationContractAddress) public onlyOwner {\r\n        dstContractLookup[_dstChainId] = _destinationContractAddress;\r\n    }\r\n\r\n    function chainId() external view returns (uint16){\r\n        return endpoint.getChainId();\r\n    }\r\n\r\n    function sendTokens(\r\n        uint16 _dstChainId, // send tokens to this chainId\r\n        bytes calldata _to, // where to deliver the tokens on the destination chain\r\n        uint256 _qty, // how many tokens to send\r\n        address _zroPaymentAddress, // ZRO payment address\r\n        bytes calldata _adapterParam // txParameters\r\n    ) public payable {\r\n        require(!paused, \"OFT: sendTokens() is currently paused\");\r\n\r\n        // lock by transferring to this contract if leaving the main chain, otherwise burn\r\n        if (isMain) {\r\n            _transfer(msg.sender, address(this), _qty);\r\n        } else {\r\n            _burn(msg.sender, _qty);\r\n        }\r\n\r\n        // abi.encode() the payload with the values to send\r\n        bytes memory payload = abi.encode(_to, _qty);\r\n\r\n        // send LayerZero message\r\n        endpoint.send{value: msg.value}(\r\n            _dstChainId, // destination chainId\r\n            dstContractLookup[_dstChainId], // destination UA address\r\n            payload, // abi.encode()'ed bytes\r\n            msg.sender, // refund address (LayerZero will refund any extra gas back to msg.sender\r\n            _zroPaymentAddress, // 'zroPaymentAddress'\r\n            _adapterParam // 'adapterParameters'\r\n        );\r\n        uint64 nonce = endpoint.getOutboundNonce(_dstChainId, address(this));\r\n        emit SendToChain(_dstChainId, _to, _qty, nonce);\r\n    }\r\n\r\n    function lzReceive(\r\n        uint16 _srcChainId,\r\n        bytes memory _fromAddress,\r\n        uint64 _nonce,\r\n        bytes memory _payload\r\n    ) external override {\r\n        require(msg.sender == address(endpoint)); // lzReceive must only be called by the endpoint\r\n        require(\r\n            _fromAddress.length == dstContractLookup[_srcChainId].length && keccak256(_fromAddress) == keccak256(dstContractLookup[_srcChainId]),\r\n            \"OFT: invalid source sending contract\"\r\n        );\r\n\r\n        // decode and load the toAddress\r\n        (bytes memory _to, uint256 _qty) = abi.decode(_payload, (bytes, uint256));\r\n        address toAddress;\r\n        assembly { toAddress := mload(add(_to, 20)) }\r\n\r\n        // if the toAddress is 0x0, burn it\r\n        if (toAddress == address(0x0)) toAddress == address(0xdEaD);\r\n\r\n        // on the main chain unlock via transfer, otherwise _mint\r\n        if (isMain) {\r\n            _transfer(address(this), toAddress, _qty);\r\n        } else {\r\n            _mint(toAddress, _qty);\r\n        }\r\n\r\n        emit ReceiveFromChain(_srcChainId, toAddress, _qty, _nonce);\r\n    }\r\n\r\n    function estimateSendTokensFee(uint16 _dstChainId, bytes calldata _toAddress, bool _useZro, bytes calldata _txParameters) external view returns (uint256 nativeFee, uint256 zroFee) {\r\n        // mock the payload for sendTokens()\r\n        bytes memory payload = abi.encode(_toAddress, 1);\r\n        return endpoint.estimateFees(_dstChainId, address(this), payload, _useZro, _txParameters);\r\n    }\r\n\r\n    //---------------------------DAO CALL----------------------------------------\r\n    // generic config for user Application\r\n    function setConfig(\r\n        uint16 _version,\r\n        uint16 _chainId,\r\n        uint256 _configType,\r\n        bytes calldata _config\r\n    ) external override onlyOwner {\r\n        endpoint.setConfig(_version, _chainId, _configType, _config);\r\n    }\r\n\r\n    function setSendVersion(uint16 _version) external override onlyOwner {\r\n        endpoint.setSendVersion(_version);\r\n    }\r\n\r\n    function setReceiveVersion(uint16 _version) external override onlyOwner {\r\n        endpoint.setReceiveVersion(_version);\r\n    }\r\n\r\n    function forceResumeReceive(uint16 _srcChainId, bytes calldata _srcAddress) external override onlyOwner {\r\n        endpoint.forceResumeReceive(_srcChainId, _srcAddress);\r\n    }\r\n\r\n    function renounceOwnership() public override onlyOwner {}\r\n}\r\n",
  "sourcePath": "F:\\blockchain\\stargate\\contracts\\OmnichainFungibleToken.sol",
  "compiler": {
    "name": "solc",
    "version": "0.7.6+commit.7338295f.Emscripten.clang"
  },
  "schemaVersion": "3.4.11",
  "updatedAt": "2023-01-10T17:40:07.124Z",
  "devdoc": {
    "kind": "dev",
    "methods": {
      "allowance(address,address)": {
        "details": "See {IERC20-allowance}."
      },
      "approve(address,uint256)": {
        "details": "See {IERC20-approve}. Requirements: - `spender` cannot be the zero address."
      },
      "balanceOf(address)": {
        "details": "See {IERC20-balanceOf}."
      },
      "decimals()": {
        "details": "Returns the number of decimals used to get its user representation. For example, if `decimals` equals `2`, a balance of `505` tokens should be displayed to a user as `5,05` (`505 / 10 ** 2`). Tokens usually opt for a value of 18, imitating the relationship between Ether and Wei. This is the value {ERC20} uses, unless {_setupDecimals} is called. NOTE: This information is only used for _display_ purposes: it in no way affects any of the arithmetic of the contract, including {IERC20-balanceOf} and {IERC20-transfer}."
      },
      "decreaseAllowance(address,uint256)": {
        "details": "Atomically decreases the allowance granted to `spender` by the caller. This is an alternative to {approve} that can be used as a mitigation for problems described in {IERC20-approve}. Emits an {Approval} event indicating the updated allowance. Requirements: - `spender` cannot be the zero address. - `spender` must have allowance for the caller of at least `subtractedValue`."
      },
      "increaseAllowance(address,uint256)": {
        "details": "Atomically increases the allowance granted to `spender` by the caller. This is an alternative to {approve} that can be used as a mitigation for problems described in {IERC20-approve}. Emits an {Approval} event indicating the updated allowance. Requirements: - `spender` cannot be the zero address."
      },
      "name()": {
        "details": "Returns the name of the token."
      },
      "owner()": {
        "details": "Returns the address of the current owner."
      },
      "renounceOwnership()": {
        "details": "Leaves the contract without owner. It will not be possible to call `onlyOwner` functions anymore. Can only be called by the current owner. NOTE: Renouncing ownership will leave the contract without an owner, thereby removing any functionality that is only available to the owner."
      },
      "symbol()": {
        "details": "Returns the symbol of the token, usually a shorter version of the name."
      },
      "totalSupply()": {
        "details": "See {IERC20-totalSupply}."
      },
      "transfer(address,uint256)": {
        "details": "See {IERC20-transfer}. Requirements: - `recipient` cannot be the zero address. - the caller must have a balance of at least `amount`."
      },
      "transferFrom(address,address,uint256)": {
        "details": "See {IERC20-transferFrom}. Emits an {Approval} event indicating the updated allowance. This is not required by the EIP. See the note at the beginning of {ERC20}. Requirements: - `sender` and `recipient` cannot be the zero address. - `sender` must have a balance of at least `amount`. - the caller must have allowance for ``sender``'s tokens of at least `amount`."
      },
      "transferOwnership(address)": {
        "details": "Transfers ownership of the contract to a new account (`newOwner`). Can only be called by the current owner."
      }
    },
    "version": 1
  },
  "userdoc": {
    "kind": "user",
    "methods": {},
    "version": 1
  }
}